:100000000C94AB000C94D3000C94D3000C94D3004C
:100010000C94D3000C94D3000C94D3000C941711BF
:100020000C94D3000C94D3000C94D3000C9499112D
:100030000C94D3000C94D3000C94D3000C94D300F4
:100040000C94CD100C94D3000C94D3000C94D300DA
:100050000C94D3000C94D3000C94D3000C94D300D4
:100060000C94D3000C94D30005A84CCDB2D44EB957
:100070003836A9020C50B9918688083CA6AAAA2A4B
:10008000BE000000803F00000008000201000003E5
:1000900004070000000000000000028C24490C0E40
:1000A0004130041E42480C8C44480C82E049129CAA
:1000B000C0411E8CC421041042081E8CC4480C8E02
:1000C000E0480C002385000023FD0000E0FD008CCB
:1000D00014B6128C144A0C00C300008091243F8097
:1000E000D4B63F0020B53F00F00300805821000245
:1000F00081402040283100C02F3100C0EC31000089
:10010000420901A1C448210441480C10C2210480C5
:10011000D4860040187A0000000000250028002B3B
:100120000000000000240027002A00040404040446
:100130000404040202020202020303030303030194
:10014000020408102040800102040810200102046B
:1001500008102000D41D11241FBECFEFD8E0DEBF51
:10016000CDBF12E0A0E0B1E0E0EFF2E402C0059004
:100170000D92AA32B107D9F723E0AAE2B2E001C09A
:100180001D92A43BB207E1F710E0CBEAD0E004C037
:100190002197FE010E947021CA3AD107C9F70E9437
:1001A00055120C9476210C94000090E0FC01E15C67
:1001B000FE4F2491855D9E4FFC018491882399F028
:1001C00090E0880F991FFC01EF5DFE4FA591B4915F
:1001D000FC01E95EFE4F859194918FB7F894EC9104
:1001E000E22BEC938FBF0895DC01EC918E2F90E011
:1001F000FC01EE0FFF1FE80FF91FE057FC4F808155
:1002000086FF02C08F7B808308958AE492E00E947B
:10021000F40089E792E00E94F40088EA92E00E94EC
:10022000F40087ED92E00C94F40090E0FC01EA57B2
:10023000FF4F2491FC01E15CFE4F3491FC01E55D30
:10024000FE4FE491EE23C9F0222339F0233001F16F
:10025000A8F4213019F1223029F1F0E0EE0FFF1F50
:10026000E95EFE4FA591B4918FB7F894EC916111BE
:1002700026C030953E233C938FBF08952730A9F0C8
:100280002830C9F0243049F7809180008F7D03C069
:10029000809180008F7780938000DFCF84B58F7747
:1002A00084BDDBCF84B58F7DFBCF8091B0008F778D
:1002B0008093B000D2CF8091B0008F7DF9CF3E2BDC
:1002C000DACF3FB7F8948091310290913202A09139
:1002D0003302B091340226B5A89B05C02F3F19F018
:1002E0000196A11DB11D3FBFBA2FA92F982F8827B6
:1002F000BC01CD01620F711D811D911D42E0660F91
:10030000771F881F991F4A95D1F708958F929F9262
:10031000AF92BF92CF92DF92EF92FF926B017C017E
:100320000E9461014B015C01C114D104E104F1049C
:10033000B9F00E946101681979098A099B09683E30
:1003400073408105910580F321E0C21AD108E108CC
:10035000F10888EE880E83E0981EA11CB11CE4CF42
:10036000FF90EF90DF90CF90BF90AF909F908F90D5
:1003700008954F925F926F927F928F929F92AF9269
:10038000BF92CF92DF92EF92FF920F931F93CF9382
:10039000DF93CDB7DEB729970FB6F894DEBF0FBE57
:1003A000CDBF2D833E834F8358870115110511F46E
:1003B00001E010E00E94591F69837A838B839C833C
:1003C000809175039091760320910001281729F1FF
:1003D0002F3F09F49CC06D817E818F8198850E949A
:1003E0008601B801110F880B990B29960FB6F89466
:1003F000DEBF0FBECDBFDF91CF911F910F91FF9058
:10040000EF90DF90CF90BF90AF909F908F907F90B4
:100410006F905F904F900C948601EAE9F0E0249190
:10042000298727FDD8CF0E94D5008985882321F010
:100430009985923009F092C189819A814C01B12C41
:10044000A12C60E072E18AE790E0A50194010E948E
:100450000B1E29013A017A01690191E0C91AD108FC
:10046000E108F1082FEFC216D104E104F10409F00C
:100470000CF442C160E472E48FE090E0A5019401C5
:100480000E940B1E69017A0181E0C81AD108E108B7
:10049000F1089985923009F0B4C082E02FEFC216BE
:1004A000D104E104F10409F00CF4F8C060E970ED46
:1004B00083E090E0A50194010E940B1E69017A017E
:1004C00081E0C81AD108E108F10883E09FEFC9165E
:1004D000D104E104F10409F00CF4E0C068E478EE22
:1004E00081E090E0A50194010E940B1E69017A0150
:1004F00081E0C81AD108E108F1089FEFC916D104BC
:10050000E104F10411F00CF0D0C084E0C7C0809386
:100510000001EAE9F0E0249129872F3F09F45BCF3D
:10052000213039F148F0223009F445C0298527FDF2
:1005300052CF0E94D5007CCF14BC15BC24B52260DC
:1005400024BD25B5216025BD9C013327F901E55D5A
:10055000FE4FE491F0E0EE0FFF1FE95EFE4F459184
:100560005491F901E15CFE4FE491E0933902198660
:100570005ACF109280001092810020918100286053
:1005800020938100209181002160209381009C01B3
:100590003327F901E55DFE4FE491F0E0EE0FFF1F18
:1005A000E95EFE4F45915491F901E15CFE4FE49103
:1005B000E093380238CF1092B0001092B100209131
:1005C000B00022602093B0002091B1002160209300
:1005D000B1009C013327F901E55DFE4FE491F0E0A5
:1005E000EE0FFF1FE95EFE4F459154915093370285
:1005F00040933602F901E15CFE4FE491E09335024D
:1006000012CF2FEFC216D104E104F10409F00CF46B
:10061000A3C068E478EE81E090E0A50194010E9417
:100620000B1E69017A0181E0C81AD108E108F108BE
:100630009985992309F403C12FEFC216D104E1046F
:10064000F10409F00CF461CF62E17AE780E090E018
:10065000A50194010E940B1E69017A0181E0C81A6C
:10066000D108E108F1089985992309F4DFC086E0F3
:100670009FEFC916D104E104F10481F078F0730111
:1006800062012AE0F594E794D794C7942A95D1F7AC
:1006900081E0C81AD108E108F10887E09091B10023
:1006A000987F892B8093B1002FC064E274EF80E0C3
:1006B00090E0A50194010E940B1E69017A0181E07E
:1006C000C81AD108E108F10885E09FEFC916D104E6
:1006D000E104F10419F310F362E17AE780E090E0BD
:1006E000A50194010E940B1E69017A0191E0C91ACB
:1006F000D108E108F108BBCF81E029852111CECFD7
:1007000095B5987F892B85BDA981BA81AA0FBB1F9A
:100710002D813E814F8158850E942A1E28EE33E0AC
:1007200040E050E00E943D1E9985913009F44CC094
:10073000923009F45BC091114ECEC7BC20934202A7
:1007400030934302409344025093450280916E00DF
:10075000826080936E003FCE82E0CFCF89819A8104
:100760004C01B12CA12C60E072E18AE790E0A50178
:1007700094010E940B1E69017A0191E0C91AD10807
:10078000E108F10891E0C114D10421E0E206F1048E
:1007900084F068E478EE81E090E0A50194010E9485
:1007A0000B1E69017A0181E0C81AD108E108F1083D
:1007B00093E02985213009F0A7CF80918100887FBF
:1007C000892B80938100A0CFD0928900C0928800AD
:1007D00020933E0230933F024093400250934102E7
:1007E00080916F00826080936F00F5CDC092B3005E
:1007F00020933A0230933B0240933C0250933D02D7
:1008000080917000826080937000E5CD7301620179
:100810009AE0F594E794D794C7949A95D1F721E09C
:10082000C21AD108E108F10885E06ACF8FEFC81637
:10083000D104E104F10409F048F784E061CF8FEFBF
:10084000C816D104E104F10411F00CF0FDCE83E0F0
:1008500057CF4F925F926F927F928F929F92AF92FB
:10086000BF92CF92DF92EF92FF920F931F93CF939D
:10087000DF93CDB7DEB728970FB6F894DEBF0FBE73
:10088000CDBF2B013C0129833A834B835C83ED82EE
:10089000FE820F8318870E94521F8B0129813A81A3
:1008A0004B815C81C301B2010E94DB1E87FF25C022
:1008B000B801110F880B990B0E948A1F2B013C0174
:1008C000AC019B0169817A818B819C810E943A20D5
:1008D0001816C4F58401A6019501C301B2010E9456
:1008E000B9012D813E814F815885C301B2010E941B
:1008F0003F200E94521F8B01DBCFB801110F880BE4
:10090000990B0E948A1F2B013C01AC019B0169815C
:100910007A818B819C810E94DB1E87FF13C084013A
:10092000A6019501C301B2010E94B9012D813E814A
:100930004F815885C301B2010E94E01E0E94521FE0
:100940008B01DBCF28960FB6F894DEBF0FBECDBF6C
:10095000DF91CF911F910F91FF90EF90DF90CF909B
:10096000BF90AF909F908F907F906F905F904F90CF
:1009700008958F929F92AF92BF92CF92DF92EF92A3
:10098000FF920F931F93CF93DF93019782319105CD
:10099000B8F4FC01E253FB4F0C94702111053405AF
:1009A00068057B059205B505E10510063F066E0654
:1009B0009806BD06EB0616072D076E0785079C07F0
:1009C0000EE110E022E330E040E050E064EA70ED38
:1009D00084E294E40E94B90109E110E027E330E0E9
:1009E00040E050E062E570ED84EA94E40E94B901D1
:1009F0000AE010E02CE330E040E050E060E070E01E
:100A00008CED94E40E94B901DF91CF911F910F9179
:100A1000FF90EF90DF90CF90BF90AF909F908F901E
:100A200008950EE110E022E330E040E050E064EA97
:100A300070ED84E294E40E94B90109E110E027E33B
:100A400030E040E050E060E070E08CED94E40E9423
:100A5000B9010AE010E022E330E040E050E062E556
:100A600070ED84EA94E4CECF92E0892E912C24E1BB
:100A7000A22EB12CC12CD12C1AE0E12E17EDF12EB3
:100A800003E81FE32CE53FEF43EC54E462E570ED2F
:100A900084EA94E40E9429046EE170E080E090E032
:100AA0000E9486014AE0A42EB12CC12CD12C18EB57
:100AB000E12E1EE1F12E05E81FE32FE135ED42E1C5
:100AC00055E462E570ED84EA94E40E9429049CCF29
:100AD000CAE08C2E912CDEE1AD2EB12CC12CD12C94
:100AE0001CE5E12E1FE8F12E02E81FE320E030E0D4
:100AF0004CED54E4E6CFFAE08F2E912CAEE1AA2E15
:100B0000B12CC12CD12C1AE0E12E17EDF12E03E807
:100B10001FE32FE135ED42E155E46CE57FEF83EC17
:100B200094E4D3CF04E610E022E330E040E050E06C
:100B300062E570ED84EA94E40E94B90100E510E0FA
:100B400022E330E040E050E06CE57FEF83EC94E49A
:100B50000E94B90110E000E02CE231E040E050E0FA
:100B60006FE175ED82E195E44DCF88248394912C5B
:100B70005AE0A52EB12CC12CD12C1CE5E12E1FE88A
:100B8000F12E02E81FE320E030E646E055E460E0A5
:100B900070E088E494E40E94290477E0A72EB12C49
:100BA000C12CD12C1AE0E12E17EDF12E03E81FE342
:100BB00020E030E048E454E460E070E586E095E44D
:100BC00084CF93E0892E912C28E0A22EB12CC12C49
:100BD000D12C18EBE12E1EE1F12E05E81FE320E0F9
:100BE00030E04AEF54E460E070E08CE594E40E9469
:100BF000290468EC70E080E090E00E948601C6E184
:100C0000D0E00AE010E025E030E040E050E068E4A9
:100C100071EF86E794E40E94B901219791F7F4CE31
:100C2000C3E08C2E912CD8E0AD2EB12CC12CD12C50
:100C30001AE0E12E17EDF12E03E81FE320E030E883
:100C40004BE355E460E070E08BEE94E40E942904ED
:100C500068EC70E080E090E00E948601C0E1D0E0A6
:100C60000AE010E02AE030E040E050E060E070EDA3
:100C700082E894E40E94B901219791F7C5CE64E01F
:100C8000862E912C70E1A72EB12CC12CD12C1AE00C
:100C9000E12E17EDF12E03E81FE320E030E041E6FE
:100CA00054E460E070E08FE294E40E942904F7E0ED
:100CB0008F2E912CA2E1AA2EB12CC12CD12C1EEA90
:100CC000E12E17E4F12E01E81FE320E030E842E2D4
:100CD00054E460E070EC80E694E4F7CE2AE0822EE3
:100CE000912C3AE0A32EB12CC12CD12C18EBE12E83
:100CF0001EE1F12E05E81FE320E030E04AEF53E467
:100D000060E070E088EC92E40E94290464EF71E0F6
:100D100080E090E00E94860188248394912C20E05A
:100D200030E048EC52E460E070E088EC93E4CDCE33
:100D3000D8E08D2E912C14E1A12EB12CC12CD12CF8
:100D400016E6E12EFE2C06E81FE320E030E44CE13D
:100D500055E460E070E88BEB94E40E94290499E18B
:100D6000A92EB12CC12CD12C20E030E84BEB54E45F
:100D700060E070E38CE195E4A8CEE3E08E2E912C48
:100D8000F8E0AF2EB12CC12CD12C16E6E12EFE2CB2
:100D900006E81FE320E030E84BEB55E460E070E04C
:100DA0008AEF94E40E94290462E370E080E090E01E
:100DB0000E948601B2E08B2E912CCDE0AC2EB12C9E
:100DC000C12CD12C20E030E04AEF54E460E078E719
:100DD0008BEB95E47ACE48E0842E912C5FE0A52E33
:100DE000B12CC12CD12C16E6E12EFE2C06E81FE317
:100DF00020E030E04AEF54E460E070E88BEB94E4EC
:100E00000E94290464E670E080E090E00E94860180
:100E10007AE0A72EB12CC12CD12C20E030E44CE19B
:100E200055E460E070E88DEE94E44FCE98EC892EA6
:100E3000912C24E1A22EB12CC12CD12C1CE5E12E49
:100E40001FE8F12E02E81FE320E030E447E254E41B
:100E500060E070E08CE594E438CEF2E08F2E912CC7
:100E6000A8E0AA2EB12CC12CD12C1AE0E12E17ED4E
:100E7000F12E03E81FE320E030E844ED54E460E0A5
:100E800070E08AE794E40E942904C3E08C2E912C40
:100E900018EBE12E1EE1F12E05E81FE320E030E023
:100EA0004AEF53E460E070E684ED94E40E94290484
:100EB0001AE0812E912C09E0A02EB12CC12CD12C4E
:100EC00016E6E12EFE2C06E81FE320E030E844EDB4
:100ED00054E460E070E08AE794E4F7CD6FE0862E9A
:100EE000912C72E0A72EB12CC12CD12C1CE5E12E47
:100EF0001FE8F12E02E81FE320E030E84BE355E461
:100F000060E070E088EC94E4E0CD34E1832E912C35
:100F100042E0A42EB12CC12CD12C1CE5E12E1FE8FF
:100F2000F12E02E81FE320E030E84BEB55E460E0EF
:100F300070E08AEF94E4C9CD84E1882E912C92E090
:100F4000A92EB12CC12CD12C1CE5E12E1FE8F12ECD
:100F500002E81FE320E030E04AE755E460E070E09B
:100F600088EC94E40E94290420E030E84BE355E447
:100F700060E070E08AE795E4A8CD2FB7F89460911F
:100F80002D0270912E0280912F02909130022FBF7E
:100F90000895CF92DF92EF92FF92CF93DF93EC010F
:100FA000603282E07807CCF5653B710514F064EBA4
:100FB00070E0898128E830E0281B310987FD3395EE
:100FC000220F331F220F331F6901330FEE08FF0872
:100FD0008A8128E532E0281B310987FD3395220FED
:100FE000331F220F331F032E000C440B550B2C19FB
:100FF0003D094E095F09DB0177FF02C0B0E0A0E0C8
:101000000E94351E24EB30E040E050E00E940B1EB1
:10101000C20ED31EE41EF51EB601E881EC3070F559
:10102000298188E890E0821B910927FD9395880F1C
:10103000991F880F991F681779077CF02A8188E526
:1010400092E0821B910927FD9395880F991F880FC5
:10105000991F681779070CF4CB010297880F991F25
:101060004FB7F8942E2F30E0F901EE0FFF1FE20F7B
:10107000F31FE057FC4F928381834FBFDF91CF91E5
:10108000FF90EF90DF90CF9008951F93CF93DF9361
:10109000EC019881292F30E0F901EE0FFF1FE20FDC
:1010A000F31FE057FC4F808186FD8CC0162F9C30CB
:1010B00008F04DC0862F0E94D5008881282F30E08F
:1010C000F901EE0FFF1FE20FF31FE057FC4F1F73F4
:1010D0006081607C162B108319821A822CE0622FAB
:1010E0000E943C21829FB001112430E020E0AB013E
:1010F000420F531FFA01EE0FFF1FE40FF51FE057D9
:10110000FC4F908196FD16C02F5F3F4F2C3031056C
:1011100071F781110FC01092800082E080938100EE
:101120001092850010928400B19A80916F008260C5
:1011300080936F00E8818E2F90E0FC01EE0FFF1F7F
:10114000E80FF91FE057FC4F8081806480838AE5B7
:1011500090E09E878D876AE570E0CE010E94C90706
:101160000E94BD076BA77CA78DA79EA78EE190E08C
:101170009E8F8D8F80ED97E098878F8380E090E041
:10118000A4E8B2E4898F9A8FAB8FBC8F8AE198EF85
:10119000A2ECBDE38D8B9E8BAF8BB88F1F8E18A2F8
:1011A00019A21AA28DE290E09C838B83198A1A8A75
:1011B0001B8A1C8A19861A861B861C861E821D8223
:1011C0001FA218A6DF91CF911F910895609165032A
:1011D000709166038AE492E00E944508609167037B
:1011E0007091680389E792E00E9445086091690365
:1011F00070916A0388EA92E00E94450860916B034F
:1012000070916C0387ED92E00C944508CF92DF92C9
:10121000EF92FF920F931F93CF93DF93EC018B011B
:101220000E94BD076B017C0129A53AA51216130681
:101230000CF042C08BA59CA5A601481B590B429FF0
:10124000C001439F900D529F900D112461E070E00A
:10125000883E23E0920724F068EE73E00E945C2150
:101260008D859E859801281B390B37FF03C031956A
:101270002195310962177307FCF4081719071CF44C
:10128000719561957109860F971F9E878D87CBA6F3
:10129000DCA6EDA6FEA66D857E858F859889680FF4
:1012A000791FCE01DF91CF911F910F91FF90EF90A9
:1012B000DF90CF900C94C9071E870D87E8CF4F921F
:1012C0005F926F927F92AF92BF92CF92DF92EF9236
:1012D000FF920F931F93CF93DF938C01EB010E943A
:1012E000E60880918F03811110928F030E94BD0741
:1012F0002801012E000C66087708DC01CB01840D63
:10130000951DA61DB71D8093770390937803A09336
:101310007903B0937A03CE0108967C010A30110557
:1013200009F486C0C301B2010E948A1F20E030E0A8
:1013300040E251E40E94E01E2B013C018E013FE798
:10134000A32E33E0B32E4AE4C42E42E0D42EF8019B
:10135000619171918F01F60185859685681B790BE6
:10136000072E000C880B990B0E948A1FA301920183
:101370000E94E01EF50161937193819391935F0147
:10138000FFE2CF0ED11C0E151F0509F70E94BD0705
:1013900000917703109178032091790330917A03BB
:1013A000601771078207930708F063C00E94BD07AA
:1013B000665F7F4F8F4F9F4F60937B0370937C03DB
:1013C00080937D0390937E032FE7C22E23E0D22EDD
:1013D0000AE412E0F60141905190619071906F0122
:1013E000F80165857685072E000C880B990B0E9405
:1013F0008A1FA30192010E946F1E0E94521FC80102
:101400000E940609015D1F4FF3E006301F0711F728
:101410000E94BD0700917B0310917C0320917D0306
:1014200030917E03601771078207930788F3AECF70
:101430008E019AE4C92E92E0D92EF8016191719142
:101440008F01C6010E940609FFE2CF0ED11C0E15C6
:101450001F0599F70E94BD0700917703109178034B
:101460002091790330917A036017710782079307FF
:1014700088F38E018AE4C82E82E0D82ED601FE01C0
:10148000219131911D968D919C911E9728173907B6
:1014900099F49F96EE16FF0699F7DF91CF911F9171
:1014A0000F91FF90EF90DF90CF90BF90AF907F9023
:1014B0006F905F904F900895F801619171918F0145
:1014C000C6010E940609FFE2CF0ED11CE016F1060C
:1014D00099F70E94BD07665F7F4F8F4F9F4F6093C4
:1014E0007B0370937C0380937D0390937E030E9423
:1014F000BD0700917B0310917C0320917D03309107
:101500007E03601771078207930788F3B2CFCF93EA
:10151000DF93CDB7DEB728970FB6F894DEBF0FBEC6
:10152000CDBF80918F03811115C088E0E1E0F1E02B
:10153000DE01119601900D928A95E1F7BE016F5F71
:101540007F4F84EF91E00E945F090E94050181E0D6
:1015500080938F0328960FB6F894DEBF0FBECDBFE1
:10156000DF91CF910895EF92FF920F931F93CF9346
:10157000DF93CDB7DEB7A0970FB6F894DEBF0FBEEE
:10158000CDBF28E0E9E0F1E0DE01599601900D922F
:101590002A95E1F728E0E1E1F1E0DE0151960190C2
:1015A0000D922A95E1F728E0E9E1F1E0DE011996D4
:1015B00001900D922A95E1F728E0E1E0F1E0DE01EB
:1015C000119601900D922A95E1F76F3F7F4FA1F49C
:1015D00021E930E03E8F2D8F2AE730E038A32F8FAE
:1015E0004CE350E05E8B4D8B388F2F8B48E750E0FB
:1015F0005E874D87388B2F878C01085E1340BE01B4
:10160000675E7F4F84EF91E00E945F09BE016F5ECD
:101610007F4F84EF91E00E945F097801F594E79491
:10162000F594E794BE01675F7F4FC7010E945F0991
:10163000BE016F5E7F4FC7010E945F09BE01675FF9
:101640007F4FC7010E945F09BE016F5E7F4FC701D8
:101650000E945F09BE016F5F7F4F84EF91E00E949F
:101660005F09B801110F880B990B0E948601A096A3
:101670000FB6F894DEBF0FBECDBFDF91CF911F91A3
:101680000F91FF90EF9008950F931F93CF93DF93E7
:10169000CDB7DEB768970FB6F894DEBF0FBECDBFEB
:1016A0008C0188E0E1E2F1E0DE01519601900D92BB
:1016B0008A95E1F788E0E9E2F1E0DE011996019010
:1016C0000D928A95E1F788E0E1E0F1E0DE01119604
:1016D00001900D928A95E1F76F3F7F4F71F481E998
:1016E00090E09E8B8D8B88E790E0988F8F8B2BE41A
:1016F00030E03E872D87988B8F87BE016F5E7F4FCE
:1017000080E991E00E945F09BE01675F7F4F80E939
:1017100091E00E945F09B801110F880B990B0E949C
:101720008A1F2DEC3CEC4CE45FE30E943F200E94BA
:10173000591F0E948601BE016F5F7F4F84EF91E0C9
:101740000E945F0968960FB6F894DEBF0FBECDBF4A
:10175000DF91CF911F910F9108950F931F93CF9316
:10176000DF93082F162FD42FC8E06D2F661F662732
:10177000661F802F0E941501DD0F61E0812F0E94FE
:10178000150160E0812F0E941501C15071F7DF91B2
:10179000CF911F910F910895FF920F931F93CF93B5
:1017A000DF93F82EC82FD0E0CA5FDC4F2C8181E098
:1017B00090E0A0E0B0E004C0880F991FAA1FBB1FF3
:1017C0006A95D2F7442329F1822B8C8360E08091C3
:1017D00007030E94150110E000E0F3942496809125
:1017E000090380171106E9F0E4F060910803809185
:1017F00006030115110581F44F2D0E94AD0B4881A0
:1018000060910803809106030E94AD0B0F5F1F4F8C
:10181000E6CF80958223D9CF40E00E94AD0B40E017
:10182000EFCF60E0809107030E94150161E0809195
:101830000703DF91CF911F910F91FF900C94150139
:10184000AF92BF92CF92DF92EF92FF920F931F93CE
:10185000CF93DF936B017C018091620390916303CE
:101860000197F1F4C7E010E000E05801D6E0B701BD
:10187000A6010A2C04C076956795579547950A945A
:10188000D2F741706C2F8D2F0E94CC0B8FEFA81ACE
:10189000B80AD15061F70A5F1F4FC150C23029F713
:1018A00080916203909163030297F9F4C0E010E025
:1018B00000E05801D1E0B701A6010A2C04C07695DA
:1018C0006795579547950A94D2F741706C2F8D2FE5
:1018D0000E94CC0B8FEFA81AB80ADF5FD73059F7F8
:1018E0000A5F1F4FCF5FC53021F78091620390914F
:1018F00063030397F1F4C0E010E000E05801D6E084
:10190000B701A6010A2C04C07695679557954795AF
:101910000A94D2F741706D2F8C2F0E94CC0B8FEF61
:10192000A81AB80AD15061F70A5F1F4FCF5FC530C0
:1019300029F780916203909163030497F9F4C7E05B
:1019400010E000E05801D1E0B701A6010A2C04C064
:1019500076956795579547950A94D2F741706D2F04
:101960008C2F0E94CC0B8FEFA81AB80ADF5FD730FC
:1019700059F70A5F1F4FC150C23021F7DF91CF9155
:101980001F910F91FF90EF90DF90CF90BF90AF909D
:101990000895CF92DF92EF92FF920F931F93CF9310
:1019A000DF93C1E0D0E060E0809107030E94150161
:1019B0006E0181E0C81AD1080AE412E0F12CE12C92
:1019C000809109038E151F04C9F0C4F04C2F60915B
:1019D0000803809106030E94AD0B40E0609108036C
:1019E000809106030E94AD0BF801E054FF4F108276
:1019F0008FEFE81AF80A0C0D1D1DE2CF60E0809110
:101A000007030E94150161E0809107030E94150100
:101A10002196C930D10539F610920A0310920B03B2
:101A200010920C0310920D0310920E0310920F03EC
:101A30001092100310921103E2E1F3E0119283E09F
:101A4000E236F807D9F7DF91CF911F910F91FF9000
:101A5000EF90DF90CF9008950F931F93CF93DF9374
:101A6000082F162F60E0809107030E941501D0E037
:101A7000C0E0809109038C171D0689F084F0402F87
:101A800060910803809106030E94AD0B412F609185
:101A90000803809106030E94AD0B2196EACF60E017
:101AA000809107030E94150161E080910703DF9197
:101AB000CF911F910F910C941501660F771F660F40
:101AC000771F65567F4F44E050E086E492E00E9425
:101AD000FA1D6091460270914702809148029091F0
:101AE00049020C94200C2AE0269FF001279FF00D5C
:101AF0001124BF01640F751F660F771F660F771FD4
:101B000067577E4F44E050E086E492E00E94FA1D61
:101B1000609146027091470280914802909149027B
:101B20000C94200C4F925F926F927F928F929F92B3
:101B3000AF92BF92CF92DF92EF92FF920F931F93DB
:101B4000CF93DF936A01270138018B014C015901C2
:101B50007B0188E0E80EF11CCAE4D2E0F801819133
:101B600091918F019E838D83F401819191914F0119
:101B70009C838B83D886CF826D8D7E8DC6010E941B
:101B8000482190E080E00E94881F9B01AC01298FD2
:101B90003A8F4B8F5C8F6BED7FE089EC90E40E9475
:101BA000E01E6D8B7E8B8F8B988FF50181919191CB
:101BB000A191B1915F0189879A87AB87BC87AF9666
:101BC0000E151F0559F60E94BD070E94881F4B0184
:101BD0005C01B601DD0C880B990B0E948A1FA301E2
:101BE00092010E943F20A50194010E946F1E6B018B
:101BF0007C01A5019401C701B6010E943A2087FD2E
:101C000089C0CAE4D2E00E94BD076BA37CA38DA368
:101C10009EA30F8D18A129A13AA14B015C01801A46
:101C2000910AA20AB30A0D8D1E8D30E020E008153E
:101C300019052A053B050CF05BC06F8F78A389A3BB
:101C40009AA38FA1811146C029853A854B855C8571
:101C500069897A898B899C890E946F1E0E94AC20B9
:101C60004B015C016B817C8190E080E00E94881FC9
:101C7000A50194010E943F204B015C016D817E8192
:101C8000072E000C880B990B0E948A1F9B01AC0148
:101C9000C501B4010E946F1E4B015C0120E030E0E1
:101CA000A9010E943A2020E030E040E05FE387FD98
:101CB0002CC0C501B4010E946F1E0E94521F88A54E
:101CC000882319F0719561957109665A7F4FCE018D
:101CD0000E9406092D893E894F89588D69897A8924
:101CE0008B899C890E946F1E698B7A8B8B8B9C8B56
:101CF000AF96F3E0C630DF0709F085CF0E94BD073D
:101D00000E94881F4B015C0174CFC501B4010E9481
:101D10006E1ED3CFDF91CF911F910F91FF90EF9067
:101D2000DF90CF90BF90AF909F908F907F906F90FB
:101D30005F904F9008952F923F924F925F926F92D3
:101D40007F928F929F92AF92BF92CF92DF92EF924B
:101D5000FF920F931F93CF93DF93CDB7DEB72897F2
:101D60000FB6F894DEBF0FBECDBF9A8389837C8304
:101D70006B835E834D831901270138010E94E608B9
:101D800080918F03811110928F03C301B2010E94D1
:101D9000521F4B016B0116161706BCF418861F82E2
:101DA000E12CF12C00E81FE391014D815E816B81F4
:101DB0007C8189819A810E94920D8F8198850196FC
:101DC00098878F83C816D90659F7B401990C880BE8
:101DD000990B0E948A1F9B01AC01C301B2010E94B2
:101DE0006E1E7B018C0191014D815E816B817C8136
:101DF00089819A810E94920D28960FB6F894DEBFD1
:101E00000FBECDBFDF91CF911F910F91FF90EF904B
:101E1000DF90CF90BF90AF909F908F907F906F900A
:101E20005F904F903F902F900895EF92FF920F9305
:101E30001F93CF93DF93CDB7DEB7A0970FB6F8947B
:101E4000DEBF0FBECDBF7B018C01198E1A8E1B8E9B
:101E50001C8E84E190E09E8F8D8F98A38F8F198ABE
:101E60001A8A1B8A1C8A9E8B8D8B8CEE9FEF988F13
:101E70008F8B9E012F5F3F4F80E1F90111928A9570
:101E8000E9F7BE016F5E7F4FCE0149960E949B0E1F
:101E9000A0960FB6F894DEBF0FBECDBFDF91CF91F5
:101EA0001F910F91FF90EF900895CF92DF92EF92E4
:101EB000FF920F931F93CF93DF93CDB7DEB7A09719
:101EC0000FB6F894DEBF0FBECDBF6C0189E190E084
:101ED0009A8F898F9C8F8B8F7E8F6D8F78A36F8F5A
:101EE000198A1A8A1B8A1C8ACB01959587950496B4
:101EF0009E8B8D8B77FF02C06F5F7F4F75956795C7
:101F000071956195710964507109788F6F8B19868D
:101F10001A861B861C8680E090E0A4EBB2E48983DD
:101F20009A83AB83BC838D839E83AF83B88724EC75
:101F30002403B001259F700D1124072E000C880B7F
:101F4000990B0E948A1F2BED3FE049E450E40E9468
:101F50003F2020E030E044E353E40E94E01E6D8720
:101F60007E878F87988BE12CF12C00E010E49E0196
:101F70002F5F3F4FA601BE016F5E7F4FCE01499696
:101F80000E949B0EA0960FB6F894DEBF0FBECDBF89
:101F9000DF91CF911F910F91FF90EF90DF90CF9045
:101FA0000895EF92FF920F931F93CF93DF93CDB7D6
:101FB000DEB7A0970FB6F894DEBF0FBECDBF7B0192
:101FC0008C01198E1A8E1B8E1C8E84E190E09E8FE0
:101FD0008D8F98A38F8F198A1A8A1B8A1C8A8AE090
:101FE00090E09E8B8D8B86EF9FEF988F8F8B9E015D
:101FF0002F5F3F4F80E1F90111928A95E9F7BE0109
:102000006F5E7F4FCE0149960E949B0EA0960FB641
:10201000F894DEBF0FBECDBFDF91CF911F910F911E
:10202000FF90EF900895EF92FF920F931F93CF933D
:10203000DF93CDB7DEB7A0970FB6F894DEBF0FBE23
:10204000CDBF28E0E1E3F1E0DE01599601900D9269
:102050002A95E1F728E0E9E3F1E0DE0151960190ED
:102060000D922A95E1F720E1E1E4F1E0DE0111961D
:1020700001900D922A95E1F7019709F58AE090E029
:102080009C8F8B8FE12CF12C00E010E49E012F5FE0
:102090003F4F48EE53E0BE016F5E7F4FCE01499641
:1020A0000E949B0EA0960FB6F894DEBF0FBECDBF68
:1020B000DF91CF911F910F91FF90EF9008958AE0EB
:1020C00090E09A8F898FDECFCF92DF92EF92FF92CE
:1020D0000F931F93CF93DF93CDB7DEB7A0970FB6C3
:1020E000F894DEBF0FBECDBF28E0E1E3F1E0DE01F2
:1020F000599601900D922A95E1F728E0E9E3F1E085
:10210000DE01519601900D922A95E1F79E012F5F15
:102110003F4F690128E0F60111922A95E9F726EA76
:10212000AC012403B001259F700D1124072E000C73
:10213000880B990B0E948A1F2BED3FE049E450E485
:102140000E943F2020E030E044E353E40E94E01E80
:1021500069877A878B879C876D877E878F87988B27
:10216000E12CF12C00E010E4960148EE53E0BE01B2
:102170006F5E7F4FCE0149960E949B0EA0960FB6D0
:10218000F894DEBF0FBECDBFDF91CF911F910F91AD
:10219000FF90EF90DF90CF9008951F920F920FB6AF
:1021A0000F9211242F933F938F939F93AF93BF93DD
:1021B00080912D0290912E02A0912F02B0913002B9
:1021C00030912C0223E0230F2D3758F50196A11DE5
:1021D000B11D20932C0280932D0290932E02A09388
:1021E0002F02B09330028091310290913202A0917F
:1021F0003302B09134020196A11DB11D80933102CA
:1022000090933202A0933302B0933402BF91AF9106
:102210009F918F913F912F910F900FBE0F901F9024
:10222000189526E8230F0296A11DB11DD2CF1F924B
:102230000F920FB60F9211242F933F934F935F93FA
:102240006F937F938F939F93AF93BF93EF93FF937E
:1022500080913A0290913B02A0913C02B0913D02E4
:10226000892B8A2B8B2BD1F190913502E09136028C
:10227000F091370280818927808380913A02909182
:102280003B02A0913C02B0913D02181619061A06B5
:102290001B069CF480913A0290913B02A0913C0273
:1022A000B0913D020197A109B10980933A02909340
:1022B0003B02A0933C02B0933D02FF91EF91BF918E
:1022C000AF919F918F917F916F915F914F913F91CE
:1022D0002F910F900FBE0F901F90189580910001C5
:1022E000EAE9F0E0E4919FEF90930001E13051F0D2
:1022F00030F0E23069F060E00E941501DECF10920C
:102300006E00F9CF90916F009D7F90936F00F3CF97
:10231000909170009D7F9093700091E09093B00039
:102320009091B100987F94609093B1001092B300A7
:10233000E2CF1F920F920FB60F9211242F933F936B
:102340004F935F936F937F938F939F93AF93BF93BD
:10235000CF93DF93EF93FF9380912B02C0912A02DA
:10236000D0E087FF24C010928500109284008091F5
:102370002B028F5F80932B0280912B02082E000C82
:10238000990B8C179D0724F480912B028C30C4F19B
:102390008091840090918500049680349C4908F4D3
:1023A0007AC08091840090918500049676C08091D7
:1023B0002B02082E000C990B8C179D07C4F6E09198
:1023C0002B028E2FEE0F990BFC01EE0FFF1FE80F73
:1023D000F91FE057FC4F808186FFC9CFE0912B02A7
:1023E0008E2FEE0F990BFC01EE0FFF1FE80FF91F68
:1023F000E057FC4F808160E08F730E941501B7CFDA
:102400002091840030918500E0912B028E2FEE0FF9
:10241000990BFC01EE0FFF1FE80FF91FE057FC4F6F
:1024200081819281820F931F90938900809388000D
:10243000E0912B028E2FEE0F990BFC01EE0FFF1F88
:10244000E80FF91FE057FC4F808186FF11C0E09133
:102450002B028E2FEE0F990BFC01EE0FFF1FE80FE2
:10246000F91FE057FC4F808161E08F730E941501D6
:10247000FF91EF91DF91CF91BF91AF919F918F919C
:102480007F916F915F914F913F912F910F900FBE70
:102490000F901F90189580E49CE990938900809399
:1024A00088008FEF80932B02E3CFCF93DF93CDB7DC
:1024B000DEB7AA970FB6F894DEBF0FBECDBF7894F3
:1024C00084B5826084BD84B5816084BD85B5826039
:1024D00085BD85B5816085BD80916E0081608093EA
:1024E0006E00109281008091810082608093810053
:1024F0008091810081608093810080918000816063
:10250000809380008091B10084608093B1008091BD
:10251000B00081608093B00080917A0084608093E5
:102520007A0080917A00826080937A0080917A00AC
:10253000816080937A0080917A00806880937A002D
:102540001092C10082E090E090936603809365034F
:1025500083E090E0909368038093670384E090E0C9
:1025600090936A038093690385E090E090936C03F5
:1025700080936B030E94E60810928F037AE4672E23
:1025800072E0772E10E000E0C8010E94031E90E088
:10259000813891050CF09A95D30150969C938E93B7
:1025A0001F970F5F1F4FBFE26B0E711C04301105A8
:1025B00059F78DE090E090937603809375030E9425
:1025C000D50081E18093060380E1809307038FE0CB
:1025D0008093080381E08093090381E090E0909369
:1025E00063038093620310920A0310920B0310920C
:1025F0000C0310920D0310920E0310920F03109211
:10260000100310921103E2E1F3E082E693E01192ED
:102610008E179F07E1F781E10E94D50080910803A2
:102620000E94D500809107030E94D50061E080914F
:1026300008030E94150167E08BE00E942C0D60E00A
:1026400089E00E942C0D61E08CE00E942C0D60E07E
:102650008FE00E942C0D0E94C90C6FE08AE00E945E
:102660002C0D90E080E00E94B9040E94870A62E38A
:1026700070E080E090E00E9486010EE110E022E32D
:1026800030E040E050E064EA70ED84E294E40E94BF
:10269000B9016AE070E080E090E00E945D0D8DE09D
:1026A00090E00E94B90440E253E060E070E080E80E
:1026B0009FE30E94D10F8DE090E00E94B9040E9438
:1026C000870A6BE070E080E090E00E945D0DFE0103
:1026D00031961F01CE0141969AA389A36AE5462E41
:1026E000512C81E090E00E9464108FEF9FEF0E94D8
:1026F000641081E090E00E94131001E010E023E0FC
:1027000030E040E050E060E070E080E291E40E9460
:10271000B9014AE0842E912C5AE0A52EB12CC12C8F
:10272000D12C18EBE12E1EE1F12E05E81FE320E08D
:1027300030E048E453E460E070E088EC92E40E940A
:1027400029040E94870A64E670E080E090E00E941D
:1027500086018FEF9FEF0E94131061E070E084EF1D
:1027600091E00E94440B6FEF7FEF80ED97E00E94B5
:10277000440B61E070E08CED95E00E94B30A0E948A
:10278000870A64E670E080E090E00E9486016FEFC7
:102790007FEF80ED97E00E94B30A198E1A8E1B8E90
:1027A0001C8E79E1672E712C7E8E6D8E78A26F8ED5
:1027B000198A1A8A1B8A1C8AAEE0B0E0BE8BAD8BE8
:1027C000E2EFAE2EBB24BA94B88EAF8AF8E0DF2ECB
:1027D000F1018D2D11928A95E9F78BED9FE0A9EC1F
:1027E000BFEB89879A87AB87BC8787E39DE8A7E221
:1027F000B0EC8D879E87AF87B88BE12CF12C00E47D
:1028000010E4910148EE53E0BE016F5E7F4FCE01B0
:1028100049960E949B0E198E1A8E1B8E1C8E7E8EE0
:102820006D8E78A26F8E198A1A8A1B8A1C8AAEE076
:10283000B0E0BE8BAD8BB88EAF8AF1018D2D1192B9
:102840008A95E9F78BED9FE0A9ECBFE389879A872A
:10285000AB87BC8787E39DE8A7E2B0E48D879E87BE
:10286000AF87B88B910148EE53E0BE016F5E7F4F9A
:10287000CE0149960E949B0E41E050E064E170E079
:1028800088EE93E00E94550F4FEF5FEF64E170E038
:1028900088EE93E00E94550F64E670E080E090E0DF
:1028A0000E948601ACE0B0E0BA8FA98FBC8FAB8FDD
:1028B000B4E16B2E712C7E8E6D8E78A26F8E198A8C
:1028C0001A8A1B8A1C8A9E8A8D8A16EFA12EBB2427
:1028D000BA94B88EAF8A19821A821B821C828BED41
:1028E0009FE0A9E4B0E48D839E83AF83B8878BED2E
:1028F0009FE0A9ECBFEB89879A87AB87BC878BEDFC
:102900009FE0A9ECBFE38D879E87AF87B88BE12C52
:10291000F12C00E010E4910148EE53E0BE016F5E3F
:102920007F4FCE0149960E949B0EACE0B0E0BA8F7B
:10293000A98FBC8FAB8F7E8E6D8E78A26F8E198A19
:102940001A8A1B8A1C8A9E8A8D8AB88EAF8A19823F
:102950001A821B821C828BED9FE0A9E4B0E48D8378
:102960009E83AF83B8878BED9FE0A9ECBFE3898797
:102970009A87AB87BC878BED9FE0A9ECBFEB8D8777
:102980009E87AF87B88B910148EE53E0BE016F5E22
:102990007F4FCE0149960E949B0E64E670E080E076
:1029A00090E00E94860148EE53E0C801B7010E9402
:1029B000D10F48EE53E0C801B7010E94150F1D8EDC
:1029C0001E8E1F8E18A27A8E698E7C8E6B8EA9A1A8
:1029D000BAA1ED2D1D92EA95E9F780E1E1E5F1E07C
:1029E000D10101900D928A95E1F7910148EE53E0F3
:1029F000BE016F5E7F4FCE0149960E949B0E198EDD
:102A00001A8E1B8E1C8E7E8E6D8E78A26F8E198A0A
:102A10001A8A1B8A1C8A7E8A6D8A8CEE9FEF988F99
:102A20008F8B80E1E1E6F1E0D10101900D928A9572
:102A3000E1F791014CED55E0BE016F5E7F4FCE0195
:102A400049960E949B0E8DE090E09A8F898F9C8F13
:102A50008B8F9E8F8D8F98A38F8F198A1A8A1B8ACE
:102A60001C8AA1E1B0E0BE8BAD8B87EF9FEF988F02
:102A70008F8B80E1E1E7F1E0D10101900D928A9521
:102A8000E1F7910148EE53E0BE016F5E7F4FCE014A
:102A900049960E949B0EE1E8F1E0DE0151968D2DF2
:102AA00001900D928A95E1F7BE016F5E7F4F84EF32
:102AB00091E00E945F09E1E0F1E0D10101900D9207
:102AC000DA94E1F7B10184EF91E00E945F090E947E
:102AD000870A64E670E080E090E00E94860189E069
:102AE00090E00E94B90487E090E00E94B90488E079
:102AF00090E00E94B90486E090E00E94B90482E070
:102B000090E00E94B90483E090E00E94B90484E060
:102B100090E00E94B90485E090E00E94B9048AE048
:102B200090E00E94B90480E190E00E94B90481E144
:102B300090E00E94B90482E190E00E94B9048BE029
:102B400090E00E94B9048DE090E00E94B9048CE00E
:102B500090E00E94B9048EE090E00E94B9048FE0FA
:102B600090E00E94B90481E090E00E94B90464E61C
:102B700070E080E090E00E9486010EE110E022E328
:102B800030E040E050E064EA70ED84E294E40E94BA
:102B9000B9016AE070E080E090E00E945D0D8DE098
:102BA00090E00E94B90440E253E060E070E080E809
:102BB0009FE30E94D10F8DE090E00E94B9040E9433
:102BC000870A6BE070E080E090E00E945D0D6BE0B2
:102BD00070E080E090E00E945D0D8BE090E00E944C
:102BE000B9046CE070E080E090E00E945D0D44EF7D
:102BF00051E060E070E080E89FE30E94150F6BE019
:102C000070E080E090E00E945D0D8CE090E00E941A
:102C1000B9046CE070E080E090E00E945D0D44EF4C
:102C200051E060E070E080E89FE30E94150F0E9491
:102C3000870A6BE070E080E090E00E945D0D66E145
:102C400070E080E090E00E945D0DEEE6F0E0FA8337
:102C5000E98386E490E09C838B837E826D8280EAA8
:102C600090E098878F83B1018CEB92E00E945F091E
:102C700098EC892E912C24E1A22EB12CC12CD12CC0
:102C80001CE5E12E1FE8F12E02E81FE320E030E80A
:102C90004FE454E460E070E08CE594E40E94290481
:102CA00068E170E080E090E00E945D0D20E030E897
:102CB00045E454E460E070E88FE494E40E94290461
:102CC00067E170E080E090E00E945D0D20E030E080
:102CD00049E354E460E070E885E494E40E94290448
:102CE00068E170E080E090E00E945D0D20E030E05F
:102CF0004FE254E460E070E089E394E40E94290428
:102D000067E170E080E090E00E945D0D20E030E43B
:102D100047E254E460E070E08FE294E40E9429040A
:102D200066E170E080E090E00E945D0D64EF71E08C
:102D300080E090E00E9486010E94870A6CE271E0C8
:102D400080E090E00E9486016BE070E080E090E01F
:102D50000E945D0D6FE070E080E090E00E945D0DEC
:102D600040E4A42E46E0B42E5AE5652E712C5A821A
:102D700049825C824B827E826D8284EB90E0861970
:102D8000970998878F83B1018AE090E00E945F09DC
:102D9000B5010B2C000C880B990B0E948A1F01E0D7
:102DA00010E02FE030E040E050E00E94B9019FEFDA
:102DB000691A790AA4E1AA0EB11CB6E96B1671046E
:102DC000B1F66EE070E080E090E00E945D0D30EFC3
:102DD000A32E3AE0B32E5A8249825C824B827E82D5
:102DE0006D8284EB90E08619970998878F83B101F3
:102DF0008AE090E00E945F09B5010B2C000C880B63
:102E0000990B0E948A1F01E010E02FE030E040E0C3
:102E100050E00E94B901E1E06E1A7108F4E1AF0ED2
:102E2000B11C8AE568167104B1F66BE070E080E0D1
:102E300090E00E945D0D44EF51E060E070E080E8BA
:102E40009FE30E94150F8CE090E00E94B9046CE0B3
:102E500070E080E090E00E945D0D44EF51E060E0A2
:102E600070E080E89FE30E94150F0E94870A0E948D
:102E7000C90C6BE070E080E090E00E945D0D7A820A
:102E800069827C826B82A6E4B0E0BE83AD83EEE60D
:102E9000F0E0F887EF83B1018CE291E00E945F09D6
:102EA0006EE170E080E090E00E945D0D0EE110E0C8
:102EB00024E630E040E050E060E070E08CE594E42F
:102EC0000E94B90174E0872E912CE7E0AE2EB12C60
:102ED000C12CD12C1CE5E12E1FE8F12E02E81FE3E6
:102EE0002FE135ED42E954E460E070E08CE594E4D4
:102EF0000E94290488248394912CBAE0AB2EB12C33
:102F0000C12CD12C2CE53FEF43EC54E46FE175ED7F
:102F100082E994E40E94290420E030E04CE554E486
:102F20006CE57FEF83EC94E40E9429046FE070E08D
:102F300080E090E00E94860184E0882E912C94E14C
:102F4000A92EB12CC12CD12C24EA30ED44E254E45A
:102F500060E070E08CE594E40E94290460E971E08F
:102F600080E090E00E9486018EE690E09A8389835B
:102F70009C838B837E826D8278866F82B10188EC20
:102F800090E00E945F092FE135ED42E954E460E0F2
:102F900070E08CE594E40E942904A6E4B0E0BA83D2
:102FA000A983BC83AB837E826D8278866F82B101F8
:102FB00088EC90E00E945F0924EA30ED44E254E49A
:102FC00060E070E08CE594E40E9429040E94870A86
:102FD0006BE070E080E090E00E945D0D84E690E0A0
:102FE0009A83898380E590E09C838B838CE390E0D7
:102FF0009E838D8388E790E098878F83B1018CEB67
:1030000092E00E945F0924E0622E712C50E040E0C3
:1030100061E070E080E090E00E94730D3AE0832E62
:10302000912C4AE0A42EB12CC12CD12C18EBE12E0E
:103030001EE1F12E05E81FE320E030E048E453E410
:1030400060E070E088EC92E40E94290441E050E0E6
:1030500061E070E080E090E00E94730D20E030E0DD
:1030600046E953E460E070E088E493E40E942904B8
:1030700042E050E061E070E080E090E00E94730D7B
:1030800020E030E04AEF53E460E070E086E993E44A
:103090000E94290464EF71E080E090E00E948601C4
:1030A00041E050E061E070E080E090E00E94730D4C
:1030B00088248394912C20E030E04AE753E460E0D8
:1030C00070E088EC93E40E94290450E040E061E065
:1030D00070E080E090E00E94730D20E030E048EC6A
:1030E00052E460E070E08AE793E40E94290464EF10
:1030F00071E080E090E00E948601B1E06B1A7108F7
:1031000009F084CF63E170E080E090E00E945D0D03
:1031100089E090E00E94B9040E94870A6BE070E0A9
:1031200080E090E00E945D0D6EE170E080E090E054
:103130000E945D0D84E0882E912C94E1A92EB12C83
:10314000C12CD12C1CE5E12E1FE8F12E02E81FE373
:103150002FE135ED42E954E460E070E08CE594E461
:103160000E94290424EA30ED44E254E460E070E077
:103170008CE594E40E9429046CE271E080E090E028
:103180000E94860163E170E080E090E00E945D0DA6
:1031900004E010E05A8249825C824B825E824D825A
:1031A000EEE6F0E0F887EF83B10184E690E00E945C
:1031B0005F090E94870A0150110961F76EE170E012
:1031C00080E090E00E945D0D64EF71E080E090E0AF
:1031D0000E9486010E94870A6BE070E080E090E028
:1031E0000E945D0D6DE070E080E090E00E945D0D5A
:1031F00089E090E00E94B90441E050E06FE070E0A7
:103200008CED95E00E94550F0E94870A8DE090E0BA
:103210000E94B9046BE070E080E090E00E945D0DD8
:103220008EE690E09A838983A6E4B0E0BC83AB830A
:103230005E824D8258864F82B1018CE291E00E94FD
:103240005F0964E170E080E090E00E945D0D8FE036
:1032500090E00E94B90464EF71E080E090E00E9489
:1032600086010E94870A6BE070E080E090E00E9497
:103270005D0D5A8249825C824B8211E9612E712C6C
:103280007E826D820AE7A02EB12CB886AF82B10192
:1032900084EF91E00E945F096CE271E080E090E0D1
:1032A0000E94860163E170E080E090E00E945D0D85
:1032B00080E190E00E94B90460E170E080E090E07D
:1032C0000E945D0D6AEF70E080E090E00E94860150
:1032D0005A8249825C824B8200E510E01E830D8396
:1032E000B886AF82B10184EF91E00E945F096CE281
:1032F00071E080E090E00E94860163E170E080E090
:1033000090E00E945D0D81E190E00E94B90460E1CF
:1033100070E080E090E00E945D0D6AEF70E080E078
:1033200090E00E9486015A8249825C824B827E82B2
:103330006D8218870F83B10184EF91E00E945F09CD
:103340006CE271E080E090E00E94860163E170E051
:1033500080E090E00E945D0D82E190E00E94B9045F
:1033600060E170E080E090E00E945D0D6CE271E051
:1033700080E090E00E9486010E94870A64EF71E07D
:1033800080E090E00E9486016BE070E080E090E0D9
:103390000E945D0DE2E0F0E0FAA7E9A7B4EF6B2E22
:1033A000772473941CA21BA24BA15CA163E070E084
:1033B00080E090E00E94730DB3016C597F4F072E9F
:1033C000000C880B990B0E948A1F6DA37EA38FA30C
:1033D00098A7B301072C000C880B990B0E948A1F39
:1033E000EAE08E2E912CFAE0AF2EB12CC12CD12C1C
:1033F0001CE5E12E1FE8F12E02E81FE32DA13EA1FE
:103400004FA158A50E94290495E6690E711CABA135
:10341000BCA11196BCA3ABA3B6EE6B16B5E07B06C0
:1034200019F61CA21BA24BA15CA163E070E080E036
:1034300090E00E94730DB3016C597F4F072E000C72
:10344000880B990B0E948A1F6DA37EA38FA398A758
:10345000B301072C000C880B990B0E948A1F3AE0DD
:10346000832E912C4AE0A42EB12CC12CD12C1CE52A
:10347000E12E1FE8F12E02E81FE32DA13EA14FA18E
:1034800058A50E942904E5E66E0E711C8BA19CA133
:1034900001969CA38BA398ED691699E0790619F61D
:1034A0001CA21BA24BA15CA163E070E080E090E055
:1034B0000E94730DB30164567109072E000C880B2E
:1034C000990B0E948A1F6DA37EA38FA398A7B301B7
:1034D000072C000C880B990B0E948A1F1AE0812E82
:1034E000912C0AE0A02EB12CC12CD12C1CE5E12E90
:1034F0001FE8F12E02E81FE32DA13EA14FA158A520
:103500000E942904A5E66A1A7108EBA1FCA1319674
:10351000FCA3EBA3F6EE6F16F5E07F0619F61CA2EE
:103520001BA24BA15CA163E070E080E090E00E94F0
:10353000730DB30164567109072E000C880B990BAB
:103540000E948A1F6DA37EA38FA398A7B301072CA7
:10355000000C880B990B0E948A1FFAE08F2E912C89
:10356000AAE0AA2EB12CC12CD12C1CE5E12E1FE81B
:10357000F12E02E81FE32DA13EA14FA158A50E9404
:10358000290485E6681A7108ABA1BCA11196BCA3F9
:10359000ABA3B4EF6B16B1E07B0619F6E9A5FAA56B
:1035A000319709F0FCC20E94C90C64E670E080E02B
:1035B00090E00E9486016BE070E080E090E00E9465
:1035C0005D0D84E090E09AA789A700E911E01CA2B4
:1035D0001BA24BA15CA162E070E080E090E00E9441
:1035E000730D380194E6690E711CB801110F880B38
:1035F000990B0E948A1F6DA37EA38FA398A7B30186
:10360000072C000C880B990B0E948A1F9B01AC01B0
:103610006AE0862E912C7AE0A72EB12CC12CD12CF9
:1036200018EBE12E1EE1F12E05E81FE36DA17EA14E
:103630008FA198A50E942904ABA1BCA11196BCA39F
:10364000ABA38301B8EE6B16B3E07B0611F60E94C4
:10365000C90C18EBE12E1EE1F12E05E81FE320E076
:1036600030E849E854E46DA17EA18FA198A50E949D
:1036700029041CA21BA24BA15CA162E070E080E0C7
:1036800090E00E94730DB3016C597F4F072E000C20
:10369000880B990B0E948A1F6DA37EA38FA398A706
:1036A000B301072C000C880B990B0E948A1F2AE09B
:1036B000822E912C3AE0A32EB12CC12CD12C18EBE8
:1036C000E12E1EE1F12E05E81FE32DA13EA14FA141
:1036D00058A50E942904E4E66E1A71088BA19CA1EA
:1036E00001969CA38BA390E9691691E0790619F6DF
:1036F000A9A5BAA51197BAA7A9A7AB2B09F065CFC1
:103700006CE271E080E090E00E9486016BE070E086
:1037100080E090E00E945D0D67E170E080E090E065
:103720000E945D0D5A8249825C824B82E6E4F0E0A1
:10373000FE83ED8383E2682E712C78866F82B1015F
:103740008CE291E00E945F0901E010E028EC30E09B
:1037500040E050E060E070E081E694E40E94B9014E
:1037600068E170E080E090E00E945D0D5A8249823D
:103770005C824B8287E390E09E838D8378866F82A4
:10378000B1018CE291E00E945F0928EC30E040E05A
:1037900050E060E070E086E194E40E94B90164E1E9
:1037A00070E080E090E00E945D0D5A8249825C8268
:1037B0004B828AE290E09E838D8378866F82B1018E
:1037C0008CE291E00E945F0928EC30E040E050E09C
:1037D00060E070E086E993E40E94B9015A82498270
:1037E0005C824B8282E290E09E838D8378866F823A
:1037F000B1018CE291E00E945F096AE170E080E033
:1038000090E00E945D0D0E94050128E938E040E04B
:1038100050E060E070E086E193E40E94B90168E561
:1038200072E080E090E00E9486010E94C90C6BE08B
:1038300070E080E090E00E945D0D0E94870A0E9487
:10384000870A64E670E080E090E00E94860160E014
:1038500070E0CB010E945D0D64E670E080E090E0D6
:103860000E94860161E070E080E090E00E945D0DC2
:1038700064E670E080E090E00E94860162E070E023
:1038800080E090E00E945D0D64E670E080E090E0F2
:103890000E94860163E070E080E090E00E945D0D90
:1038A00064E670E080E090E00E94860164E070E0F1
:1038B00080E090E00E945D0D64E670E080E090E0C2
:1038C0000E94860165E070E080E090E00E945D0D5E
:1038D00064E670E080E090E00E94860166E070E0BF
:1038E00080E090E00E945D0D64E670E080E090E092
:1038F0000E94860167E070E080E090E00E945D0D2C
:1039000064E670E080E090E00E94860168E070E08C
:1039100080E090E00E945D0D64E670E080E090E061
:103920000E94860169E070E080E090E00E945D0DF9
:1039300064E670E080E090E00E9486016AE070E05A
:1039400080E090E00E945D0D64E670E080E090E031
:103950000E9486016BE070E080E090E00E945D0DC7
:1039600064E670E080E090E00E9486016CE070E028
:1039700080E090E00E945D0D64E670E080E090E001
:103980000E9486016DE070E080E090E00E945D0D95
:1039900064E670E080E090E00E9486016EE170E0F5
:1039A00080E090E00E945D0D64E670E080E090E0D1
:1039B0000E9486016FE070E080E090E00E945D0D63
:1039C00064E670E080E090E00E9486016EE070E0C6
:1039D00080E090E00E945D0D64E670E080E090E0A1
:1039E0000E94860160E170E080E090E00E945D0D41
:1039F00064E670E080E090E00E94860164E170E09F
:103A000080E090E00E945D0D64E670E080E090E070
:103A10000E94860165E170E080E090E00E945D0D0B
:103A200064E670E080E090E00E9486016BE170E067
:103A300080E090E00E945D0D64E670E080E090E040
:103A40000E94860167E170E080E090E00E945D0DD9
:103A500064E670E080E090E00E94860168E170E03A
:103A600080E090E00E945D0D64E670E080E090E010
:103A70000E94860161E170E080E090E00E945D0DAF
:103A800064E670E080E090E00E94860162E170E010
:103A900080E090E00E945D0D64E670E080E090E0E0
:103AA0000E9486016AE170E080E090E00E945D0D76
:103AB00064E670E080E090E00E94860169E170E0D9
:103AC00080E090E00E945D0D64E670E080E090E0B0
:103AD0000E9486016CE170E080E090E00E945D0D44
:103AE00064E670E080E090E00E94860163E170E0AF
:103AF00080E090E00E945D0D64E670E080E090E080
:103B00000E9486016DE170E080E090E00E945D0D12
:103B100064E670E080E090E00E94860150E040E0C2
:103B200060E070E0CB010E94730D68EE73E080E00E
:103B300090E00E94860150E040E061E070E080E0AB
:103B400090E00E94730D68EE73E080E090E00E94C8
:103B5000860141E050E061E070E080E090E00E948A
:103B6000730D68EE73E080E090E00E94860142E011
:103B700050E061E070E080E090E00E94730D68EE3C
:103B800073E080E090E00E94860180E090E0892B65
:103B900011F40C9471130E9400000C946E1381E0D8
:103BA00090E09AA789A7FACBEAE4F2E02FEF48EB7E
:103BB0005BE080912A028C30D8F491E0980F9093CA
:103BC0002A02808390E0DC01AA0FBB1FA80FB91F57
:103BD000A057BC4F12965C934E931197108A17868C
:103BE00012A611A6BF9683E0E630F80711F70895F4
:103BF0002083F4CFFB01DC0102C005900D924150FF
:103C00005040D8F70895F999FECF92BD81BDF89A3A
:103C1000992780B50895052E97FB1EF400940E9405
:103C2000221E57FD07D00E943D1E07FC03D04EF414
:103C30000C94221E50954095309521953F4F4F4F43
:103C40005F4F089590958095709561957F4F8F4F48
:103C50009F4F08950E945F1EA59F900DB49F900DE9
:103C6000A49F800D911D11240895B7FF0C942A1E66
:103C70000E942A1E821B930B0895A1E21A2EAA1BF2
:103C8000BB1BFD010DC0AA1FBB1FEE1FFF1FA2170C
:103C9000B307E407F50720F0A21BB30BE40BF50B09
:103CA000661F771F881F991F1A9469F76095709592
:103CB000809590959B01AC01BD01CF010895A29F15
:103CC000B001B39FC001A39F700D811D1124911DF0
:103CD000B29F700D811D1124911D08955058BB276E
:103CE000AA270E94861E0C9400200E94F21F38F022
:103CF0000E94F91F20F039F49F3F19F426F40C9428
:103D0000EF1F0EF4E095E7FB0C94E91FE92F0E94EA
:103D1000112058F3BA17620773078407950720F03C
:103D200079F4A6F50C9433200EF4E0950B2EBA2FFF
:103D3000A02D0B01B90190010C01CA01A0011124B1
:103D4000FF27591B99F0593F50F4503E68F11A165D
:103D5000F040A22F232F342F4427585FF3CF4695EE
:103D600037952795A795F0405395C9F77EF41F1610
:103D7000BA0B620B730B840BBAF09150A1F0FF0FDA
:103D8000BB1F661F771F881FC2F70EC0BA0F621FC6
:103D9000731F841F48F4879577956795B795F795B6
:103DA0009E3F08F0B0CF9395880F08F09927EE0F4B
:103DB0009795879508950E94C51F08F481E008959E
:103DC0000E94F41E0C9400200E94F91F58F00E94DB
:103DD000F21F40F029F45F3F29F00C94E91F5111C4
:103DE0000C9434200C94EF1F0E94112068F3992347
:103DF000B1F3552391F3951B550BBB27AA276217E7
:103E00007307840738F09F5F5F4F220F331F441FF3
:103E1000AA1FA9F335D00E2E3AF0E0E832D0915027
:103E20005040E695001CCAF72BD0FE2F29D0660F14
:103E3000771F881FBB1F261737074807AB07B0E857
:103E400009F0BB0B802DBF01FF2793585F4F3AF05D
:103E50009E3F510578F00C94E91F0C9434205F3F8D
:103E6000E4F3983ED4F3869577956795B795F795E3
:103E70009F5FC9F7880F911D9695879597F90895CB
:103E8000E1E0660F771F881FBB1F62177307840767
:103E9000BA0720F0621B730B840BBA0BEE1F88F776
:103EA000E09508950E94591F6894B1110C94342034
:103EB00008950E94192088F09F5798F0B92F9927EC
:103EC000B751B0F0E1F0660F771F881F991F1AF005
:103ED000BA95C9F714C0B13091F00E943320B1E017
:103EE00008950C943320672F782F8827B85F39F016
:103EF000B93FCCF3869577956795B395D9F73EF49E
:103F000090958095709561957F4F8F4F9F4F089545
:103F1000E89409C097FB3EF4909580957095619563
:103F20007F4F8F4F9F4F9923A9F0F92F96E9BB2719
:103F30009395F695879577956795B795F111F8CF95
:103F4000FAF4BB0F11F460FF1BC06F5F7F4F8F4F00
:103F50009F4F16C0882311F096E911C0772321F0F6
:103F60009EE8872F762F05C0662371F096E8862F8E
:103F700070E060E02AF09A95660F771F881FDAF7E5
:103F8000880F9695879597F90895990F0008550F12
:103F9000AA0BE0E8FEEF16161706E807F907C0F0CF
:103FA00012161306E407F50798F0621B730B840BD7
:103FB000950B39F40A2661F0232B242B252B21F4B1
:103FC00008950A2609F4A140A6958FEF811D811D51
:103FD000089597F99F6780E870E060E008959FEF8B
:103FE00080EC089500240A94161617061806090690
:103FF000089500240A94121613061406050608955F
:10400000092E0394000C11F4882352F0BB0F40F4E6
:10401000BF2B11F460FF04C06F5F7F4F8F4F9F4F26
:10402000089557FD9058440F551F59F05F3F71F0A8
:104030004795880F97FB991F61F09F3F79F087950F
:104040000895121613061406551FF2CF4695F1DF98
:1040500008C0161617061806991FF1CF8695710528
:10406000610508940895E894BB2766277727CB015C
:1040700097F908950E94C51F08F48FEF08950E94D4
:1040800052200C9400200E94F21F38F00E94F91F69
:1040900020F0952311F00C94E91F0C94EF1F1124CC
:1040A0000C9434200E94112070F3959FC1F3950F5A
:1040B00050E0551F629FF001729FBB27F00DB11DAC
:1040C000639FAA27F00DB11DAA1F649F6627B00D3C
:1040D000A11D661F829F2227B00DA11D621F739F25
:1040E000B00DA11D621F839FA00D611D221F749F33
:1040F0003327A00D611D231F849F600D211D822F7A
:10410000762F6A2F11249F5750409AF0F1F08823A0
:104110004AF0EE0FFF1FBB1F661F771F881F9150CD
:104120005040A9F79E3F510580F00C94E91F0C9474
:1041300034205F3FE4F3983ED4F3869577956795F6
:10414000B795F795E7959F5FC1F7FE2B880F911DF7
:104150009695879597F908959F930E94B6200F90A2
:1041600007FCEE5F0C94DF200C94EF1F0E941920D7
:10417000D8F3E894E0E0BB279F57F0F02AED3FE04A
:1041800049EC06C0EE0FBB0F661F771F881F28F093
:10419000B23A62077307840728F0B25A620B730BB6
:1041A000840BE3959A9572F7803830F49A95BB0F9B
:1041B000661F771F881FD2F790480C94F520EF9365
:1041C000E0FF07C0A2EA2AED3FE049EC5FEB0E9466
:1041D000861E0E9400200F90039401FC9058E8E690
:1041E000F0E00C9401219F3F31F0915020F487952D
:1041F00077956795B795880F911D9695879597F94F
:1042000008959F938F937F936F93FF93EF939B01F9
:10421000AC010E943F20EF91FF910E9415212F9148
:104220003F914F915F910C943F20DF93CF931F9369
:104230000F93FF92EF92DF927B018C01689406C08E
:10424000DA2EEF010E945220FE01E894A5912591FB
:10425000359145915591A6F3EF010E94861EFE010E
:104260009701A801DA9469F7DF90EF90FF900F9122
:104270001F91CF91DF910895991B79E004C0991F98
:10428000961708F0961B881F7A95C9F780950895B0
:10429000AA1BBB1B51E107C0AA1FBB1FA617B7076C
:1042A00010F0A61BB70B881F991F5A95A9F7809588
:1042B0009095BC01CD01089597FB072E16F400944C
:1042C00007D077FD09D00E94482107FC05D03EF4B5
:1042D000909581959F4F0895709561957F4F0895B2
:1042E000EE0FFF1F0590F491E02D0994F894FFCF95
:1042F000FF5A005A005A005A005A005A003A002346
:10430000005A005A003A0078005A005A003A003C1D
:10431000005A005A003E0023005A005A003E00692D
:10432000001E001E0014001400000000000400FC29
:10433000FF0000000000000000DB0FC9BFDB0FC959
:10434000BFDB0FC9BFDB0FC93F000000000000004A
:10435000000000000000000000DB0FC9BFDB0FC938
:104360003FDB0FC9BFDB0FC93FDB0FC9BFDB0FC985
:104370003F5A005A0096001E0000C30000806100F2
:1043800000C03000008061000000C3000000860112
:1043900000000C0300008601000000000000000087
:1043A00000300C0000100A010018496200100A01D8
:1043B00000000000000000000000000000000000FD
:1043C00000000000000000000021000021520884CD
:1043D000128C144A0C0023310000C00000000000C1
:1043E00000000000000000000000000000000000CD
:1043F0000000104A0C0008250620841003304208F3
:1044000001182904008C1402004602810003814037
:0A4410002081402030402090180069
:00000001FF
